:020000040800F2
:10000000700A0020B92C0008B30D0008B50D0008D7
:10001000B70D0008B90D0008BB0D00080000000076
:10002000000000000000000000000000BD0D0008FE
:10003000BF0D000800000000C10D0008D12C000811
:10004000D32C0008D32C0008D32C0008D32C000894
:10005000D32C0008D32C0008D32C0008D32C000884
:10006000D32C0008D32C00080B0D0008D32C00085B
:10007000D32C0008D32C0008D32C0008D32C000864
:10008000D32C0008D32C000800000000D32C00085B
:10009000D32C0008D32C0008D32C0008D32C000844
:1000A000D32C0008D32C0008D32C0008D32C000834
:1000B000450C000800000000D32C000800000000E0
:1000C000D32C000800000000D32C0008D32C00081B
:1000D000D32C0008D32C0008D32C0008000000000B
:1000E0000000000000000000D32C0008D32C000802
:1000F000D32C0008D32C0008D32C0008D32C0008E4
:10010000D32C00080000000000000000D32C0008E1
:1001100000000000000000000000000000000000DF
:1001200000000000000000000000000000000000CF
:1001300000000000000000000000000000000000BF
:1001400000000000000000000000000000000000AF
:100150000000000000000000D32C0008D32C000891
:10016000D32C0008D32C0008DFF80CD003F0B6F82D
:10017000004800477D010008700A002000F04BFE97
:10018000002211461C2002F024FD012200210A2039
:1001900002F01FFD4FF4165000F07EFC00F013FC3F
:1001A000002000F01BF800F0D2FC00F0F7FC00F09B
:1001B0002AFD084C084D00262078022802D126701E
:1001C00000F056FA2878012801D00328F4D100F075
:1001D000E0F9F1E7DE050020E00500202DE9F0411F
:1001E000FE4E4FF4006568B101284FF000004AD080
:1001F00006F5F07121F81050401C80B2F028F9D3B8
:10020000BDE8F081F64CA07902F069FFDFF8D483F5
:100210000022434602F0E3FE02F082FFC7B2A7715C
:10022000207C02F05CFF0022434602F0D8FE02F080
:1002300077FFC0B22074384402F051FFEA4AEB4B1A
:1002400002F0CDFE02F06CFF2179091A217161796B
:10025000081A60715FF0000026F81050401C80B250
:10026000F028F9D3E349E2480860E3494FF4AF705E
:1002700048608C20886010314FF4AF6048604FF4C4
:100280000C708860BCE726F81050401C80B2F02843
:10029000F9D3B5E72DE9F04FDFF86083D04C414644
:1002A0008BB098F805000F788D78217C0791217923
:1002B0000191A1794FF000090891012811D002287D
:1002C0007CD1D8F80C004646401CC8F80C00C94840
:1002D000D8F814104FF0010B0068009000296ED080
:1002E000A2E0022088F80500C61E88F80490BC48E9
:1002F000C8F81490C8F80C90027C8079DFF8E8A266
:100300001044BE4A012F538992F9032008D0022FCE
:100310003DD0032F70D0052FD3D10A20E06033E009
:10032000092A1CDAA118AE4A497DD279012904D0E4
:10033000022904D0032906D007E0E26005E0019914
:1003400001EB420100E0E18BE16002F0C8FE5246A1
:10035000AB4B02F044FE06468A46E06824E00DB14D
:10036000062D30D1617C642201FB02FB02F0B7FE56
:100370005246A34B02F033FE82465846039102F0E8
:10038000AEFE5246039B31E088F8036099E7022AEB
:1003900016DA94F808B002F0A2FE5246984B02F02A
:1003A0001EFE06468A46584602F099FE32465346DD
:1003B00002F00FFE02F0B4FEE06082E7BBE01DE059
:1003C0001DB1062D01D0E360DEE7A17C642201FBB4
:1003D00002FB02F084FE5246894B02F000FE0490BC
:1003E0008A46584602F07BFE5346049A02F0F1FD1D
:1003F00002F096FE92E7FFE7E660C5E7089802F094
:1004000069FE0146009802F005FD8046B061414654
:100410004FF07E5002F0FEFC02F06EFE706188F03C
:100420000040306186F804B096F90300411C07D102
:10043000032F05D125B13179042901D17169F1600A
:10044000D6F81480F168414575D80AD131794FF05A
:10045000040A012906D0022927D003293DD0042906
:100460004CD08BE04FF07E50C6F818903061052FCD
:100470000CD0019802F02EFE009902F0CBFC02F0A5
:100480003BFE404470610220307177E0308902F019
:1004900021FE009902F0BEFC02F02EFE4044706185
:1004A0000320307086F802A0EDE7079802F012FEF4
:1004B0000146009802F0AEFC0546014634464FF076
:1004C0007E5002F0A7FC02F017FE4044606185F008
:1004D0000040A0610320207150E0C6F81090C6F8DB
:1004E0001890E06802F0F6FD009902F093FC02F02B
:1004F00003FE4044706186F804A03FE0411C03D035
:1005000086F805B0401C2CE03E483F4C062D007894
:1005100006D0042D10D0012D1DD0022D1BD003E0DC
:1005200086F80290F179B171032F1CD086F805B0DE
:1005300086F8039022E027E086F800904D4686F882
:100540000290012805D00120FFF748FE7571F57073
:1005500012E00220F8E7357086F80290484686F8E7
:1005600005B0F0700AE086F8009086F80590012842
:100570000DD00120FFF732FE84F800A03446B169A7
:10058000306902F0BDFB20610BB0BDE8F08F0220A6
:10059000F0E72DE9F047194D6879002849D0FFF7B9
:1005A00079FEA879012846D0022846D0174E154872
:1005B000124FD5F8108001781C374FF08A4001297E
:1005C0004FF000043BD0054D814600BF37F91400C1
:1005D00002F077FD414602F0EBFB19E0FC01002040
:1005E000BC0500200000F43F9A9999999999B93F68
:1005F0006EDBB63FE4050020EC0500200000002083
:100600009999E93FDF050020E0050020EFFF7F3FDB
:10061000314602F0CDFB494602F072FB02F06CFD60
:1006200025F81400641CA4B2F02CCFD3CA490220D0
:100630000870BDE8F087C94EB9E7C94EB7E7C94DA4
:100640004FEA000937F9140002F03BFD414602F081
:10065000AFFB314602F0ACFB494602F051FB02F021
:100660004BFD25F81400641CA4B2F02CEAD3DDE79E
:100670002DE9F05FDFF8F0E2BC4900269EF8028029
:10068000DFF8D4B20123032405270A78B848B94D0E
:100690004FF0CC0C4FF00409B8F1040F6ED00EDC13
:1006A000B8F1000F2AD04FF0020AB8F1010F35D08F
:1006B000B8F1020F49D0B8F1030F0ED154E04FF05A
:1006C000060AB8F1050F64D0B8F1060F76D0B8F17C
:1006D000640F74D0B8F1690F72D02978052966D0FB
:1006E00006296ED14178827803795140C2785A4008
:1006F00051404171BDE8F05F00F0E7BA4470867088
:10070000C67080F804C02F7022B1022A04D0032AD8
:1007100002D04CE00B700FE08B7048E044708370A7
:10072000C67080F804C02F7022B1012A08D0032AB5
:1007300008D03CE081F800A04B718BF8003036E027
:10074000C37034E081F802A031E0447080F802A068
:10075000C67080F804C02F7022B1012AF0D0022A9E
:10076000EED024E00C70E7E744708470C67080F827
:1007700004C02F70DAB181F8029018E0447080F85C
:100780000290C67080F804C04B462F70002AC3D177
:100790000DE0447087709EF80340012C12D0022CAB
:1007A00010D0032C0ED0C37080F804C02F70417895
:1007B00082785140C278514001719BE70AE014E011
:1007C00028E02FE022B1CC7181F802A0C670EBE7DF
:1007D0008C71FBE7447080F802A0C67080F804C0FA
:1007E0002F70002AACD10F70A6E7642180F8019029
:1007F0008170C670012A0AD0022A08D0032A06D0C6
:1008000080F8044080F805C085F800A06AE7521E11
:100810000271F7E780F8019069228270C6708979C9
:100820000171EFE7BDE8F09F2DE9F0414F4E524CCA
:1008300000253178707804F11007814262D04FF0C2
:100840000108012914D1022802D0032805D008E0AC
:100850003D7000210120FD6001E00021022000F038
:100860008DF884F8008001210020E56000F086F812
:100870003078022815D17078012802D0032805D0DD
:1008800008E0257000210846E56001E00021022013
:1008900000F074F887F8008001210846FD6000F040
:1008A0006DF83078032801D0A0B129E070780128D4
:1008B00005D1257000210846E56000F05FF87078EA
:1008C000022805D13D7000210120FD6000F056F89E
:1008D000012112E07078012804D0022807D00328F3
:1008E0000AD00DE0257000210846E56006E03D7065
:1008F00000210120FD6001E00021022000F03EF80F
:1009000030787070207801280FD1E068401CE060DA
:10091000A168884201D1002104E06168884204D1C5
:100920000121E560002000F029F83878012811D174
:10093000F868401CF860B968884201D1002104E0E1
:100940007968884206D10121FD60BDE8F0410120AF
:1009500000F014B854E40000E00500209FAAAA3E6D
:100960009FAA2A3FDC0300200C0600200000002084
:100970003E060020DD050020EC05002050B1FE4AB7
:10098000012813D002280DD11068012918D040F099
:10099000080010E04FF090400129816903D041F434
:1009A00000418161704741F00041FAE71068012978
:1009B00003D040F010001060704740F48010FAE758
:1009C00040F40020F7E7ED4800B5416941F480218B
:1009D0004161416941F400314161E74818380168DB
:1009E00021F0C0010160016841F04001016001682F
:1009F00021F440710160016841F4807101604FF0A1
:100A00009040016821F040410160016841F080415F
:100A10000160D94914390A6822F008020A600A689C
:100A200022F010020A60416821F001014160D249C0
:100A300010390A6822F0C0020A600A6822F4407283
:100A40000A60816821F003018160CB490C390A6892
:100A500022F0C0020A600A6842F040020A600A6896
:100A600022F440720A600A6842F480720A60C16827
:100A700021F00301C160C16841F00101C1600021A2
:100A80000846FFF77BFF00210120FFF777FF0021D9
:100A900002205DF804EB71E770B5044640F2115096
:100AA00000F014FD40F2117000F010FD4FF0904581
:100AB00004220121284600F0A2FC08220121284638
:100AC00000F09DFC042301220221284600F039FC9D
:100AD000042301220021284600F056FC08230122AD
:100AE0000221284600F02DFC08230122002128467F
:100AF00000F04AFCA24D284601F076FD214628462A
:100B000001F087FD0821284601F0DCFD042128467C
:100B100001F0E0FD0521284602F01CF8284601F00E
:100B2000C7FD9849AA20087070BD70B59449044665
:100B30002831C0F308000860914E40F2077529463D
:100B4000304601F0F4FF0028F9D0204670BD1FB5F3
:100B500040F2047000F0BAFC8B4C204600F072FFAB
:100B60000320ADF8000000216A200290ADF80C10BF
:100B70000120ADF80210ADF804108DF80E006946A2
:100B8000204600F09AFF2021204601F05EFC20461E
:100B900000F0D7FF204600F0CAFF1FBD70B590B02F
:100BA0004FF4A06000F092FC022000F03FFA77487A
:100BB000012409900020CDE90B04A0020A90F02046
:100BC0000D904FF44050724D0E9026020695CDE9DF
:100BD0000764182209A9684602F080F823463246C5
:100BE0002946022000F037FA022000F073FA0220B2
:100BF00000F084FA0221084600F055FB022000F0C4
:100C000087FA10B070BD10B540F2115000F05EFCD4
:100C100040F21D7000F05AFC1023002203214FF017
:100C2000904000F08EFB002000F0BBF900F08DF941
:100C300000F079F900F06BF9554941F207000839E5
:100C4000086010BD70B54E4C5249204601F09CFF23
:100C5000002839D0204601F049FDC3B200224E4899
:100C6000AA2B0ED0817801292ED146490478323939
:100C70000B55641CE4B20470322C06D3312303708C
:100C800006E0012181700270EFE7022C00D1437170
:100C90004479002C18D003789D1EA54214D14271CE
:100CA000CA544A78042B02D0052B02D005E08C7878
:100CB00002E08C786240CC786240194411F8011C43
:100CC000914201D10221817070BD2DE9F047DFF81A
:100CD000B0900024DFF8AC8009F1280940F20776D3
:100CE000274D2D4F0CE000BF18F80410C9F8001074
:100CF0003146284601F01BFF0028F9D0641CE4B2FD
:100D000078788442F0D3BDE8F08710B50221084618
:100D100000F086FA00284BD01F4C2079022809D019
:100D2000042809D0022000F0FDF9F021022000F093
:100D300011FA13E0032000E000202071022000F0EF
:100D4000F1F9E078012814D01049022000F0FBF9F5
:100D5000F021022000F0FEF90120E070022000F0F6
:100D6000D7F9FFF761FD0221BDE81040084600F009
:100D700093BA0A49022013E0180400480010024008
:100D8000004400403E06002000100040FC0100200E
:100D90000874004005000507DC050020DC03002086
:100DA00000F0D1F9F021022000F0D4F90220D4E7BC
:100DB00010BD7047FEE7FEE7FEE7FEE770477047AD
:100DC000704700003F48016841F00101016001687F
:100DD0008907FCD541683C4A1140416041683B4A63
:100DE00011404160416821F4400141600168384A86
:100DF00011400160C16A21F00F01C162016B40F234
:100E0000431291430163416B21F0010141630021D1
:100E1000816000F035B81FB52EA30FCB8DE80F0011
:100E2000284948682F4C304AC0F3810018B1012886
:100E300001D0022801D0146019E048684B68C0F363
:100E40008340C3F3C0630BB1113000E0801C4B68DA
:100E5000C3F3004343B1CB6A03F00F035B1CB4FB45
:100E6000F3F34343136002E0204B5843106048689B
:100E70001168C0F303101DF80000C14011601FBDD0
:100E80001048416841604168416041684160416883
:100E9000174A114041604168164A11434160016898
:100EA00041F08071016001688901FCD5416821F041
:100EB00003014160416841F0020141604168090756
:100EC000FCD57047001002400C00FF08FFFFC277FE
:100ED000FFFFF2FE0000000000000000010203041A
:100EE0000607080900127A00E805002000093D0005
:100EF000FFFFC2F70000040810B540F21D44204671
:100F000000F010FB2046BDE8104000F016BB46483C
:100F1000016841F00101016070474348016821F018
:100F20000101016070474048016841F4805101604F
:100F300070473D48016821F48051016070473A488C
:100F4000016821F00201016070473748016841F0F3
:100F50000201016070473448016841F004010160FA
:100F600070473148016821F00401016070472E4844
:100F7000001D016841F00101016070472A48001D11
:100F8000016821F00101016070472748016841F4C0
:100F90000051016070472448016821F4005101604C
:100FA000704721490A6822F038020A600A68024341
:100FB0000A6070471C482C30006880B270471A489D
:100FC00034300068800401D501207047002070474C
:100FD00015483430016821F400510160704712480F
:100FE0003430006810F4005F0F48006800F40050CF
:100FF00002D008B101207047002070470A480168FC
:1010000021F400510160704738B1012808D002284E
:1010100002D1054810300160704703480830FAE7F4
:1010200001480C30F7E7000000740040AF4B00EBC4
:10103000800103EB81018A6822F001028A600022AC
:101040008A60CA600A614A61596882000F20904034
:101050000143596070472DE9F0430DF11C0800EB86
:10106000800098E8E0024FEA8008A048DDE90BC460
:10107000404401614561C0F80CC08168324321F4ED
:101080007C510C4322438260816883B121F040018E
:101090008160816877B121F0800181608168B9F158
:1010A000000F0AD041F010018160BDE8F08341F0EB
:1010B0004001EDE741F08001EFE721F01001F3E797
:1010C00000EB8000810089480844816841F02001DC
:1010D0008160704700EB800081008448084481688B
:1010E00021F020018160704700EB800081007F4883
:1010F0000844816841F480418160704700EB8000C2
:1011000081007A480844816821F4804181607047F9
:1011100000EB8000810075480844816841F00101BE
:101120008160704700EB800081007048084481684E
:1011300021F00101816070476C4A00EB800002EBF6
:10114000800001617047694A00EB800002EB80007B
:1011500041617047654A00EB800002EB8000C1608E
:101160007047624900EB800001EB8000C068704767
:1011700000EB800082005D480244906820F44050FB
:1011800008439060704700EB80008200574802449B
:10119000906820F4406008439060704700EB800046
:1011A000820052480244906820F4407008439060E6
:1011B000704700EB800081004C480844816841F092
:1011C00080018160704700EB80008100474808443F
:1011D000816821F080018160704700EB8000810010
:1011E00042480844816841F040018160704700EB4B
:1011F000800081003D480844816821F04001816001
:1012000070473A4A00EB800002EB800000298168B9
:1012100003D041F010018160704721F01001FAE71E
:10122000F0B5324B00EB8004002503EB84060F275A
:1012300084002A468C46012921D080000CFA00F156
:10124000BCF1020F06D0BCF1040F0AD0BCF1080FAC
:101250001CD10DE01A68B0680A40E24000F00205B7
:1012600014E01A68B0680A40E24000F004050DE09E
:101270001A68B0680A40E24000F0080506E01A6803
:10128000A7403A40B068E24000F00E052A4201D083
:101290000120F0BD0020F0BD144A53688000814059
:1012A0000B435360704700EB800082000F481044EE
:1012B00082680A438260704700EB800082000B481E
:1012C000104482688A4382607047084A126880002E
:1012D00081400A4201D00120704700207047034A34
:1012E0005368800081400B43536070470000024008
:1012F000604A10B5811A90421CD008DCB0F1904FC2
:1013000015D05D49C8421BD140F6122407E0B1F563
:10131000806F12D0B1F5406F12D140F616242046EE
:1013200000F000F92046BDE8104000F006B940F694
:101330001124F4E740F61324F1E740F61424EEE715
:1013400010BD2DE9F047894601689246C268002425
:1013500001274FF0030C00BF07FA04F51D420BD024
:1013600066000CFA06F5A943AA4309FA06F80AFA38
:1013700006F548EA01012A43641CA4B2102CEBD301
:101380000160C260BDE8F087F0B50129416819D05D
:10139000994341608168002401274FF0030C00BF8E
:1013A00007FA04F61E4207D066000CFA06F521EA99
:1013B000050502FA06F12943641CA4B2102CEFD3F0
:1013C0008160F0BD1943E4E7816170478162704735
:1013D0000AB181617047816270474161704700695D
:1013E000084000D001207047006980B27047406912
:1013F000084000D001207047406980B27047F0B5C6
:10140000036A446A002501265FF00F0706FA05FC0F
:101410001CEA020F09D04FEA850C07FA0CFE23EAFA
:101420000E0301FA0CFE4EEA03036D1CADB2082D4B
:10143000ECD3082506FA05FC1CEA020F0BD04FEA94
:10144000850CACF1200C07FA0CFE24EA0E0401FA1C
:101450000CFE4EEA04046D1CADB2102DEAD30362FB
:101460004462F0BD41F48032C261C161C261C169B0
:10147000C06970470008004800FCFFB7F8480168E1
:1014800041F00101016001688907FCD54168F54A16
:10149000114041604168F44A11404160416821F4C3
:1014A000400141600168F14A11400160C16A21F0C8
:1014B0000F01C162016B40F2431291430163416B22
:1014C00021F001014163002181607047E44901EB93
:1014D00090110A6800F01F030120984002430A603F
:1014E0007047DF4901EB90110A6800F01F030120EB
:1014F000984082430A607047D94901EB90110A680D
:1015000000F01F030120984002430A607047D4494D
:1015100001EB90110A6800F01F03012098408243FC
:101520000A607047CE4901EB90110A6800F01F0372
:101530000120984002430A607047C94901EB9011AD
:101540000A6800F01F030120984082430A60704738
:10155000C348016A41F4803101627047C048016AA2
:1015600021F4803101627047BD494A6822F00302CC
:10157000104348607047BA48406800F00C0070475C
:10158000B7494A6822F0F002104348607047B449F6
:101590004A6822F4E062104348607047B0494A68E4
:1015A00022F46052104348607047AD494A6822F403
:1015B00040424A600A6B22F480720A6305281AD2FC
:1015C000DFE800F00307090D1100086B20F48070BC
:1015D00010E048680AE0486840F4804006E0486847
:1015E00040F4004002E0486840F440404860086B26
:1015F00040F480700863704799494A6822F44002B9
:101600004A604A6802434A607047954B5A6822F024
:10161000774202430A435A607047914A10B55368B3
:10162000934C23405360536808430343536010BDF9
:101630008B490A6B22F003020A630A6B02430A63B6
:10164000704787490A6B22F040020A630A6B024323
:101650000A63704782490A6A22F440720A620A6A7F
:1016600002430A6270477E4AD16A21F00F010143AA
:10167000D16270477A490A6A22F018020A620A6A3D
:1016800002430A627047764A02EB9011096800F043
:101690001F0201209040014201D00120704700202C
:1016A00070476F48416A41F08071416270476C49F0
:1016B0008968014201D001207047002070476849C5
:1016C0008A6802438A60704765498A6802438A6073
:1016D000704763498A6882438A60704770B5002307
:1016E0004FF40066634D1C46B0421CD005DC48B385
:1016F000102809D0182850D143E0B0F5106F3DD024
:10170000B0F5506F49D12DE01120FFF7BCFF5B1CF5
:1017100008B9B342F8D111203BE03046FFF7B3FFE0
:101720005B1C28B106E06FF07C4540F60106F4E74B
:10173000AB42F2D130462CE00120FFF7A4FF5B1C46
:1017400018B104E04FF4A065F6E7AB42F4D10120F4
:101750001FE03046FFF797FF5B1C0028EAD1AB4241
:10176000F7D1E7E740F60156F3E73046FFF78BFF86
:101770005B1C0028DED1AB42F7D1DBE740F6011657
:10178000F3E71920FFF77FFF5B1C08B9AB42F8D1E4
:101790001920FFF778FF00B10124204670BD3049C1
:1017A00001EB90110A6800F01F03012098400243EA
:1017B0000A6070472A4901EB90110A6800F01F0384
:1017C0000120984082430A6070472549B0F5006FB8
:1017D0000DD00BDC002809D0102807D108680A6852
:1017E00022F480320A6040F4802008607047086A62
:1017F0000A6A22F001020A6240F00400086270479F
:101800001749B0F5006F0DD00BDC002809D0102867
:1018100007D108680A6822F480320A6020F4802028
:1018200008607047086A0A6A22F001020A6220F022
:101830000400086270470A48016841F40021016011
:1018400070470748016821F400210160704704498E
:101850000A6822F0F80242EAC000086070470000FF
:10186000001002400C00FF08FFFFC277FFFFF2FEEE
:10187000FFFFC2F7FFFF0F0069494A6B22F0F80231
:1018800042EAC0004863E9E76548D0F8001100214A
:10189000C0F80011D0F80011624A1143C0F80011DD
:1018A000DCE75F49D1F8342122F00702C1F8342186
:1018B000D1F834210243C1F83421CFE75849D1F897
:1018C000382122F00102C1F83821D1F83821024331
:1018D000C1F83821C2E72DE9F04753A688B05ACEA7
:1018E0008DE85A0051A38046D3E90013CDE90413D3
:1018F0004EA10020D1E90031CDE90631484B054623
:10190000024659684C4EC1F3810119B1012901D039
:10191000022901D0314617E059685C68C1F3834160
:10192000C4F3C0640CB1113100E0891C5C68C4F3DD
:1019300000443CB1DC6A04F00F04641CB6FBF4F410
:10194000614301E03D4C61435C68C4F303141DF83E
:10195000047021FA07F45F680DF1100CC7F3022739
:101960001CF8077024FA07F95F680DF1180CC7F32B
:10197000C2274FF4004A1CF8077024FA07F7B8F1A1
:10198000070F06D2DFE808F004080A0C0E29310020
:10199000084608B0BDE8F0872046FAE74846F8E771
:1019A0003846F6E7186BC00501D4254D13E058689A
:1019B000C0F3813030B1012806D0022806D00328B8
:1019C00009D107E07D0806E0BD0804E00620B7FB6A
:1019D000F0F500E0FD082846DBE7186B400602D46E
:1019E00048F21200D5E75046D3E7186B80070ED0B7
:1019F000186B00F0030001280BD0186B00F00300F7
:101A0000022808D0186BC043800706D006E03A468B
:101A100004E00A4602E0524600E032461046B8E7CB
:101A2000001002404D3C2B1A000000000000000096
:101A3000010203040607080900127A0000093D00AC
:101A4000809FD500FC4B10B5C21A4FF4E05198426C
:101A500020D00DDCB0F1804F1FD0F84A80181FD085
:101A6000B0F5406F1FD0884226D14FF4816409E061
:101A7000B2F5A05F1AD0B2F5C05F1AD08A421BD16E
:101A800040F212342046FFF74DFD2046BDE81040DD
:101A9000FFF753BD40F20B34F4E74FF48064F1E7F5
:101AA00040F20144EEE740F20444EBE74FF44474A3
:101AB000E8E740F21134E5E710BDF0B50A8882622C
:101AC000DD4A904206D0B0F1804F03D0DB4B5B4241
:101AD000984207D1036823F01003036003684C8821
:101AE000234302E0036823F01003036003688C883B
:101AF000234303608B68C362D14ED24BD24CD34D8B
:101B0000B04211D0066826F44076066006688F89D8
:101B10003E430660904205D0984203D0A04201D0D7
:101B2000A84201D1897B016341694161F0BD01682F
:101B300041F0010101607047016821F0010101607D
:101B40007047016841F0800101607047016821F031
:101B5000800101607047016841F002010160704737
:101B6000016821F0020101607047026822F0600202
:101B7000026002680A4302607047016821F01001A8
:101B80000160016801607047016821F01001016087
:101B9000016841F01001016070478162002A03D1A1
:101BA000416941F001014161704701637047C162C1
:101BB000704741627047406A7047806A80B27047E0
:101BC00031B1012903D1016821F00801016070479A
:101BD000016841F00801F9E731B1012903D1016839
:101BE00021F0040101607047016841F00401F9E748
:101BF000C2680A43C2607047C2688A43C2607047C5
:101C0000026989B2C0680A4200EA010002D008B144
:101C1000012070470020704702698A4302617047C3
:101C2000006989B2084000D00120704702698A43E8
:101C300002617047C2680A43C2607047C2688A4343
:101C4000C260704731B1012903D1416821F0080118
:101C500041607047416841F00801F9E710B5836CB5
:101C600041F61F74A3438364836C11430B43836465
:101C700010BD42690A434261704710B50A884B881B
:101C8000CC881A438B8823431A430B891A434B8908
:101C900089891A430A43426410BD416C41F4805162
:101CA00041647047416C002141647047416C41F4CC
:101CB000804141647047416C0021416470470029B4
:101CC000416C02D041F4004101E021F40041416443
:101CD00070470029416802D041F0010101E021F084
:101CE00001014160704731B1012903D1416841F0E0
:101CF000040141607047416821F00401F9E710B523
:101D00004D4B11B301295BD002297DD003297CD131
:101D1000016A21F480510162016A148841EA0431A8
:101D20000162016A21F400510162016A948841EA6A
:101D30000431016298427ED1416821F480414160C2
:101D40004168128941EA821174E0016A21F00101BF
:101D50000162016A148821430162016A21F00201D3
:101D60000162016A948821430162984208D0354992
:101D7000884205D03449884202D0344988425AD139
:101D8000016A21F004010162016A5388194301626A
:101D9000016A21F008010162016AD38819430162D6
:101DA000416821F4807141604168138919434160A1
:101DB000416821F40071416041685289114339E062
:101DC000016A21F010010162016A148841EA0411DC
:101DD0000162016A21F020010162016A948841EAEE
:101DE00004110162984226D1016A21F0400101628A
:101DF000016A538841EA03110162016A21F08001FE
:101E00000162016AD38801E022E014E041EA031193
:101E10000162416821F4806141604168138941EAAF
:101E200083014160416821F4006141604168528949
:101E300041EA8201416010BD002C014000FCFFBF5F
:101E400000100040004001400044014000480140B3
:101E5000016A21F480710162016A148841EA042157
:101E60000162016A21F400710162016A948841EA09
:101E7000042101629842DED1016A21F4806101628D
:101E8000016A538841EA03210162016A21F4006179
:101E90000162016AD38841EA03210162416821F4A9
:101EA000805141604168138941EA031141604168F2
:101EB00021F4005141604168528941EA0211B9E7B9
:101EC00071B1012913D002291AD0032907D1C169A0
:101ED00021F4E041C161C16941EA0221C161704759
:101EE000816921F0700181618169114306E0816996
:101EF00021F4E0418161816941EA022181617047F9
:101F0000C16921F07001C161C1691143E6E739B1CE
:101F1000012907D0022907D0032900D102647047A4
:101F20004263704782637047C263704771B1012991
:101F300013D002291AD0032907D1C16921F4006105
:101F4000C161C16941EA0221C1617047816921F023
:101F5000080181618169114306E0816921F4006112
:101F60008161816941EA022181617047C16921F083
:101F70000801C161C1691143E6E771B1012913D0BC
:101F800002291AD0032907D1C16921F48061C161F6
:101F9000C16941EA0221C1617047816921F00401F0
:101FA00081618169114306E0816921F48061816169
:101FB000816941EA022181617047C16921F0040110
:101FC000C161C1691143E6E771B1012913D002294A
:101FD0001AD0032907D1C16921F40041C161C16947
:101FE00041EA0221C1617047816921F0800181616C
:101FF0008169114306E0816921F4004181618169B1
:1020000041EA022181617047C16921F08001C1610B
:10201000C1691143E6E771B1012913D0022919D032
:10202000032907D1016A21F400510162016A41EAE2
:10203000023101627047016A21F002010162016A06
:102040001143F6E7016A21F020010162016A41EAC9
:102050000211EEE7016A21F400710162016A41EAAE
:102060000221E6E761B1012911D0022907D1016AF5
:1020700021F400610162016A41EA022101627047B4
:10208000016A21F008010162016A1143F6E7016A61
:1020900021F080010162016A41EA0211EEE70129A3
:1020A00006D0002903D1816821F0080181607047C2
:1020B000816841F00801F9E771B1012913D00229C3
:1020C00019D0032907D1016A21F480510162016A04
:1020D00041EA023101627047016A21F001010162A7
:1020E000016A1143F6E7016A21F010010162016AF9
:1020F00041EA0211EEE7016A21F480710162016A8E
:1021000041EA0221E6E761B1012911D0022907D194
:10211000016A21F480610162016A41EA02210162DF
:102120007047016A21F004010162016A1143F6E778
:10213000016A21F040010162016A41EA0211EEE701
:1021400071B1012913D002291AD0032907D1C1691D
:1021500021F44061C161C16941EA0221C161704756
:10216000816921F00C0181618169114306E0816977
:1021700021F440618161816941EA022181617047F6
:10218000C16921F00C01C161C1691143E6E710B4D6
:1021900031B1012925D0022949D0032944D168E071
:1021A000036A23F001030362036A23F00A03036254
:1021B000036A148823430362836923F00303836162
:1021C0008369548823438361836923F0F003836127
:1021D0008369D48843EA04138361036A43F00103EB
:1021E00021E0036A23F010030362036A23F0A003D3
:1021F0000362036A148843EA04130362836923F4C5
:10220000407383618369548843EA0423836183694B
:1022100023F4704383618369D48843EA0433836180
:10222000036A43F010030362928810BC88E7036AD4
:1022300023F480730362036A23F420630362036A56
:10224000148843EA04230362C36923F00303C361D0
:10225000C36954882343C361C36923F0F003C36196
:10226000C369D48843EA0413C361036A43F48073E7
:10227000D9E7036A23F480530362036A23F400530B
:102280000362036A148843EA04330362C36923F4D4
:102290004073C361C369548843EA0423C361C369BB
:1022A00023F47043C361C369D48843EA0433C36130
:1022B000036A43F48053B6E70246002039B101298E
:1022C00007D0022907D0032900D1106C7047506B4A
:1022D0007047906B7047D06B704770B5034610889D
:1022E0001446002600B90226608801284FD0012537
:1022F000186AE9B320F010001862186A20F0A000F4
:102300001862186A218840EA01101862986920F45E
:10231000407098619869618840EA012098619869E5
:1023200020F4704098619869E18840EA0120986142
:10233000186A40F010001862A28801211846FFF7C1
:10234000FFFE186A20F001001862186A20F00A00E7
:102350001862186A30431862986920F00300986187
:10236000986928439861986920F0F000986100E02E
:102370000FE09869E18808439861186A40F001000D
:102380001862A2880021BDE870401846D8E60225F0
:10239000AEE720F001001862186A20F00A00186207
:1023A000186A218808431862986920F00300986130
:1023B0009869618808439861986920F0F0009861F5
:1023C0009869E18808439861186A40F00100186232
:1023D000A28800211846FFF7B3FE186A20F010000B
:1023E0001862186A20F0A0001862186A40EA061005
:1023F0001862986920F440709861986940EA052055
:102400009861986920F4704098619869E18840EA81
:1024100001209861186A40F010001862A28801211A
:10242000B1E731B1012903D1416821F08001416058
:102430007047416841F08001F9E7826822F070023C
:10244000826082680A4382607047426822F07002AC
:10245000426042680A4342607047826822F0070285
:10246000826082680A438260704731B1012903D1DA
:10247000816821F0800181607047816841F08001AE
:10248000F9E710B5846824F43F44846084681143FC
:102490000C438460816841EA03218160CBE410B57C
:1024A000846824F00704846084680C438460816934
:1024B00040F20334A1438161816940F20114214358
:1024C0008161016A21F00A010162016A21F0A00123
:1024D0000162016A42EA031211430162ABE48168BE
:1024E00000218160704700B50346FFF7A6FF98689A
:1024F00020F007009860986840F00700986000BDE1
:1025000010B50446006A602928D020F0010020623E
:10251000206A20F00A002062206A10432062A0692D
:1025200020F00300A061A06940F00100A061A06953
:1025300020F0F000A061A0691843A061206A40F07B
:10254000010020622046FFF778FFA06820F0070016
:10255000A060A06840F00700A0606CE420F01000CC
:102560002062206A20F0A0002062206A40EA021067
:102570002062A06920F44070A061A06940F48070DE
:10258000A061A06920F47040A061A06940EA032026
:10259000A061206A40F01000D3E710B50446FFF7B1
:1025A00070FFA06820F00700A060A06840F007005E
:1025B000A060A06820F07000A060A06840F07000EB
:1025C000A06038E410B50446FFF75BFFA06840F454
:1025D0008040A0602FE4816821F4804181607047D1
:1025E000002900D102657047F74910B5401805D0A1
:1025F000B0F5744F0CD140F20E3401E040F21144BA
:102600002046FEF78FFF2046BDE81040FEF795BF3D
:1026100010BD70B50D460446EB490020611804D08A
:10262000B1F5744F04D1062000E00220FFF753F902
:1026300021684FF6F07209040BD5400000EB5500FD
:10264000B0FBF5F000EA0201C0F3420241EA0200E9
:1026500008E000EB5500B0FBF5F101EA020001F0E3
:102660000F010843E06070BD026822F001020260C1
:10267000026822F4C062026002680A430260704786
:10268000026822F001020260026822F480520260B5
:1026900002680A4302607047026822F00102026089
:1026A000426822F44052426042680A4342607047E6
:1026B000016841F0010101607047016821F00101EA
:1026C00001607047026822F00802026002680A4353
:1026D00002607047026822F00402026002680A4346
:1026E00002607047C1F3080181627047406AC0F31D
:1026F00008007047026822F001020260426822F47A
:1027000000224260426801F400210A43426070479F
:10271000026822F001020260082925D2DFE801F0F8
:102720000408180C1C102014416841F480211AE0A0
:10273000416821F4802116E0416821F4003112E063
:10274000416821F480310EE0416821F400410AE043
:10275000416841F4003106E0416841F4803102E013
:10276000416841F4004141607047016821F0010176
:102770000160816821F4805181607047016821F017
:1027800001010160816841F48051816070470268F5
:1027900022F001020260026822F400420260026834
:1027A0000A4302607047026822F0010202608268F8
:1027B00022F40062826082680A4382607047416846
:1027C00041F4801141607047416821F480114160FB
:1027D0007047426822F4C002426042680A43426085
:1027E0007047016841F4005101607047016821F4AD
:1027F000005101607047026822F001020260026825
:1028000022F40062026002680A43026070470268B4
:1028100022F001020260426822F010024260426827
:1028200001F010010A4342607047026822F0010281
:102830000260426822F07F424260426842EA0161DF
:1028400041607047416841F4000141607047416850
:1028500021F4000141607047426902F07F42426109
:1028600042690A4342617047016821F00101016039
:10287000416841F4804141607047016821F00101E5
:102880000160416821F4804141607047026822F094
:1028900001020260426801F020010A434260704771
:1028A000016821F001010160816841F00801816047
:1028B0007047016821F001010160816821F0080181
:1028C00081607047016821F001010160416841F4B5
:1028D000006141607047016821F0010101604168B9
:1028E00021F400614160704710B5046824F00104D0
:1028F0000460446824F4E0644460446801F4807136
:102900000C434460416802F4007211434160416825
:1029100003F480621143416010BD016821F00101A0
:102920000160816841F0200181607047016821F0F9
:1029300001010160816821F0200181607047016818
:1029400021F001010160816841F010018160704750
:10295000016821F001010160816821F010018160AE
:102960007047026822F001020260026922F47F428D
:10297000026102694FF6FF7303EA01210A43026113
:102980007047426922F07F424261426942EA016136
:1029900041617047026822F001020260826822F4FD
:1029A0006022826082684FF4602303EA41410A4357
:1029B00082607047016821F001010160816841F087
:1029C000020181607047000000BCFFBF016821F078
:1029D00001010160816821F002018160F2E7026873
:1029E00022F001020260826801F004010A43826061
:1029F000E8E7026822F001020260026922F0FF02A9
:102A0000026102690A430261DCE7026822F0010206
:102A10000260826822F48072826082680A43826067
:102A2000D0E7026822F001020260826822F400729C
:102A3000826082680A438260C4E7016821F0010174
:102A40000160816841F480418160BBE7016821F049
:102A500001010160816821F480418160B2E7026870
:102A600022F001020260026822F0787202600268BD
:102A70004FF0787303EA41510A430260A2E702680B
:102A800022F001020260026822F4F8120260026879
:102A90004FF4F81303EA01410A43026092E7026827
:102AA00022F001020260826822F4004282608268A1
:102AB00001F400410A43826084E7826822F0400208
:102AC000826082680A4382607CE7826822F080022A
:102AD000826082680A43826074E7016821F0010124
:102AE0000160816841F4005181606BE7016821F069
:102AF00001010160816821F40051816062E7016891
:102B000041F0020101605DE7016821F0020101600E
:102B100058E7026822F001020260826822F4401243
:102B20008260826801F440110A4382604AE700EB48
:102B30009110006801F01F0201219140084000D06F
:102B400001203FE7026A01F01F03012199400A4377
:102B5000026237E710B5C1F38912835801F01F04F0
:102B60000121A1400B43835010BD10B5C1F3891260
:102B7000835801F01F040121A1408B43835010BDF5
:102B800082690A4382611DE710B5C1F38912835837
:102B900000EB915001F01F04012202FA04F40068D6
:102BA0002340C1F304418A40104202D00BB10120FE
:102BB00010BD002010BD026AC1F3044301219940F9
:102BC0000A430262FEE600003849084338490860BB
:102BD000704770B5364B00252C461E68C6F302269A
:102BE000072E14D01E68C6F30226062E11D01E68CA
:102BF000C6F30226052E0FD01E68C6F30226042E49
:102C00000DD01B68C3F30223032B0BD00BE004246D
:102C100009E00125032406E002252C4603E00325F4
:102C2000012400E00425C5F104039940C4F1040423
:102C30000F23E34013400B4300F1E022190182F817
:102C4000001400F01F02012191404009800000F1B2
:102C5000E020C0F8001170BD00F01F02012191407A
:102C60004009800000F1E020C0F880117047114A4F
:102C7000114001430E48001F016070470C49091DB7
:102C80000A6802430A6070470949091D0A688243BD
:102C90000A6070474FF0E0210428086903D020F053
:102CA00004000861704740F00400FAE70000FA05EC
:102CB0000CED00E080FFFF1F0648804706480047F4
:102CC000FEE7FEE7FEE7FEE7FEE7FEE7FEE7FEE7DC
:102CD000FEE7FEE7C50D00086901000840EA0103B0
:102CE0009B0703D009E008C9121F08C0042AFAD2C2
:102CF00003E011F8013B00F8013B521EF9D2704786
:102D0000F0B480EA0102D40F4200B2EB410F02D2CC
:102D10000246084611464A0042D0C30DDDB2C1F357
:102D2000C752AD1A202D35DAC1F3160141F4000265
:102D300004B15242C5F1200602FA06F12A411044BC
:102D4000B3EBD05F23D0C4B1012DA0EBC35009DC9D
:102D5000F0BC4FF0004202EAC352DBB200F50000C3
:102D600000F031BA400000F1807000EBC350A0F1D8
:102D7000807040EAD170490009E0490841EAC07119
:102D8000A0EBC35000F50000400800EBC350F0BCBE
:102D900000F010BA6142012202EB4101001BF6E78C
:102DA000F0BC704781F00041AAE780F00040A7E73F
:102DB00080EA010210B502F00043400022D04A0030
:102DC0001FD0010E01EB1261C0F35600C2F3560290
:102DD00040F4000042F40002A0FB022000047F390E
:102DE000140400D0401C50EA124001D44000491E97
:102DF000C2B20C0604EBD010401C4008802A02D05E
:102E000003E0002010BD20F00100002900DA0020BE
:102E1000184310BD30B480EA010202F0004530F0E2
:102E2000004221F0004013D090B1C30DD40DC2F385
:102E30001601C0F31600E41A41F4000140F4000248
:102E40007D34914201D3641C00E04900002C02DA79
:102E500030BC002070474FF400000023914201D3A2
:102E6000891A034340084FEA4101F7D151B1914219
:102E700002D14FF0004105E002D24FF0010101E024
:102E80006FF0010103EBC450284430BC00F092B94C
:102E90002DE9FE4F804681EA0300C00F0C460090EA
:102EA00021F0004123F00045B8EB0200A94105D212
:102EB0004046214690461C460B46024623F0004001
:102EC000104347D0270DC7F30A00C3F30A510290FD
:102ED000401A019040286BDAC3F3130040F4801BC2
:102EE0000098924620B10023D2EB030A63EB0B0B50
:102EF00001985946C0F14002504600F02AF90646B2
:102F00000D4650465946019A00F042F910EB080070
:102F10006141002487EA115284EAE7731A4340D0E2
:102F2000009A62B3019A012A4FEA075215DC001B8E
:102F300061EB02014FF0004202EA0752CDE9004284
:102F4000001C41F5801132462B4600F079F903B0A0
:102F5000BDE8F08F40462146F9E7001B61EB020116
:102F6000001C41F5801300185B412018A2F50017E2
:102F700047EB030140EAD570B6196D4111E06D08C9
:102F80004FEA360645EAC0754FEA0752001B61EB6F
:102F90000201001C41F5801149084FEA3000001978
:102FA000514132462B4603B0BDE8F04F00F039B92D
:102FB0000098012240000023D0EB020263EBE07393
:102FC000009821464FEAE074B8EB000061EB040181
:102FD000E9E783F000435BE781F0004158E72DE922
:102FE000FE4F81EA030404F0004421F00041009404
:102FF0004FF0000B23F0004350EA01045ED052EA88
:1030000003045BD0C3F30A54C1F30A552C44A4F261
:10301000F3340194A0FB0254C1F3130141F4801175
:10302000C3F3130343F4801301FB024400FB034E7C
:10303000840A970A44EA815447EA8357A4FB076845
:1030400002958D0A05FB07854FEA932C04FB0C546F
:103050002705029D4FEA065847EA1637B5EB0805E3
:103060006EEB070C870E920E47EA811742EA831235
:10307000A7FB0201B6EB0B0164EB00042B0D43EA46
:103080000C335E1844EB1C50DA465146E7FB020154
:10309000C5F313044FEA0B3343EA14534FEA0432E7
:1030A000019C43EA0603A4F10C040294009CCDE9C0
:1030B00000B400F0C5F803B0BDE8F08F0020014671
:1030C000F9E7C10F80EAE0700844CA07962300219F
:1030D00000F079B896230022114600F074B80EB5BE
:1030E00040F2334102910021CDE900110A460B461E
:1030F00000F0A6F803B000BD20F00040C10DC0F301
:10310000160040F400007F2901DA0020704796295C
:1031100003DCC1F19601C84070479639884070477A
:10312000C1F30A5210B5C1F3130140F2FF3341F469
:1031300080119A4201DA002010BD40F233439A42D6
:10314000A2F2334203DC524200F012F810BD90406C
:1031500010BD202A04DB203A00FA02F1002070475B
:103160009140C2F1200320FA03F3194390407047C5
:10317000202A04DB203A21FA02F00021704721FACC
:1031800002F3D040C2F12002914008431946704733
:10319000202A06DBCB17203A41FA02F043EAE0731B
:1031A00006E041FA02F3D040C2F120029140084308
:1031B000194670470029A8BF7047401C490008BF46
:1031C00020F00100704710B4B0FA80FC00FA0CF057
:1031D00050EA010404BF10BC704749B1CCF120048F
:1031E00021FA04F411FA0CF118BF0121214308431C
:1031F000A3EB0C01CB1D4FEA00614FEA102042BF48
:10320000002010BC704700EBC35010440029A4BF3D
:1032100010BC7047401C490008BF20F0010010BCE2
:10322000704710B5141E73F1000408DA401C41F118
:10323000000192185B411A4301D120F0010010BD3A
:103240002DE9F04D92469B4611B1B1FA81F202E0B0
:10325000B0FA80F220329046FFF77BFF04460F461B
:1032600040EA0A0041EA0B0153465A46084313D08C
:10327000114653EA010019D0C8F140025046FFF749
:1032800077FF05460E46504659464246FFF761FF16
:10329000084305D0012004E020463946BDE8F08D02
:1032A0000020054346EAE0762C4337430A9863053D
:1032B000E40AA0EB08000022FD0A44EA47540A3061
:1032C00002D500200146E9E7010510196941DDE951
:1032D000084500196941BDE8F04DA2E7064C074DCD
:1032E00006E0E06840F0010394E8070098471034D6
:1032F000AC42F6D3FCF73CFF7C3300089C3300085B
:1033000070B58D1810F8014B14F0030201D110F8BC
:10331000012B231106D110F8013B03E010F8016BDB
:1033200001F8016B521EF9D1ABB110F8012B04F07A
:103330000C048A1A0C2C03D0A2EB84129B1C08E00C
:1033400010F8014BA2EB0422F8E712F8014B01F848
:10335000014B5B1EF9D5A942D4D3002070BD02E019
:1033600008C8121F08C1002AFAD170477047002010
:1033700001E001C1121F002AFBD170479C330008F5
:1033800000000020EC050000003300089C37000816
:10339000EC050020840400006E330008320001E0D8
:1033A000070303F4010A000110F0B1043305AA0574
:1033B00012066A06B106E606070713070A07EC06B7
:1033C000B90670061306A30520058C04E90338032B
:1033D0007C02B701EC001C004BFF7AFEAEFDE8FC5E
:1033E0002AFC78FBD4FA3FFABCF94CF9F1F8ACF8B6
:1033F0007EF867F868F881F8B1F8F7F854F9C5F97C
:1034000049FADEFA83FB36FCF4FCBAFD88FE59FF6C
:103410002C00FE00CC01950256030E04BA04580598
:10342000E8056806D70635078107BB07E307FA07F3
:103430000008F607DD07B707850748070207B40647
:1034400062060B06B3055B050405B10461041804AC
:10345000D6039B036903400320030A03FE02FA021A
:1034600000030D0321033B035A037C03A103C7039D
:10347000EC03100430044B0460046E047404700404
:1034800062044A042704F803BE0378032803CD022C
:103490006802FB018501090186F2105E77FFECFEF0
:1034A00061FED8FD52FDD0FC54FCE0FB73FB0FFB2A
:1034B000B6FA67FA24FAECF9C1F9A2F98EF986F99D
:1034C0008AF998F9B0F9D1F9FBF92BFA62FA9EFA68
:1034D000DDFA1FFB62FBA6FBE9FB2BFC69FCA5FCEC
:1034E000DDFC10FD3EFD66FD8AFDA8FDC0FDD4FD9E
:1034F000E2FDEDFDF3FDF7FDF8041008F5FDF2FD2A
:10350000F0FDEF0212F210143001FE0DFE1DFE312F
:10351000FE49FE64FE82FEA4FEC8FEEEFE15FF3DDF
:10352000FF64FF8AFFAFFFD0FFEDFF06001A0028FF
:10353000002F002E0027001792102EE1FFBAFF8CFB
:10354000FF58FF1DFFDDFE99FE52FE09FEBFFD760E
:10355000FD30FDEDFCAFFC77FC47FC21FC05FCF4E5
:10356000FBF0FBF9FB10FC368E00FF00ABFCFCFC13
:103570005AFDC4FD3BFEBDFE48FFDCFF7500130194
:10358000B3015402F3028F032404B10C330DAA0DCE
:10359000120E6A0EB10EE60E070F130F0A0FEC0E95
:1035A000B90E700E130EA30D200D8C0CE90B380B09
:1035B0007C0AB709EC081C084B077A06AE05E8043C
:1035C0002A047803D4023F02BC014C01F100AC0094
:1035D0007E00670068008100B100F7005401C5015A
:1035E0004902DE0283033604F404BA05880659074B
:1035F0002C08FE08CC09950A560B0E0CBA0C580D77
:10360000E80D680ED70E350F810FBB0FE30FFA0FD1
:10361000FE0FF60FDD0FB70F850F480F020FB40E28
:10362000620E0B0EB30D5B0D040DB10C610C180C8A
:10363000D60B9B0B690B400B200B0A0BFE0AFA0AF8
:10364000000B0D0B210B3B0B5A0B7C0BA10BC70B7B
:10365000EC0B100C300C4B0C600C6E0C740C700CE2
:10366000620C4A0C270CF80BBE0B1814780B280BB5
:10367000CD0A680AFB09850909098608000877C090
:10368000105A6106D8055205D0045404E0037303B0
:103690000F03B60267022402EC01C101A2018E01F0
:1036A00086018A019801B001D101FB012B0262025F
:1036B0009E02DD021F036203A603E9032B046904D3
:1036C000A504DD0410053E0566058A05A805C005AC
:1036D000D405E205ED05F305F705F8041008F50536
:1036E000F205F005EF0212F210103001060D061D72
:1036F000063106490664068206A406C806EE0615CB
:10370000073D0764078A07AF07D007ED0706081AC9
:103710000828082F082E08270817A0182AE107BA3A
:10372000078C0758071D07DD06990652060906BFD4
:103730000576053005ED04AF047704470421040540
:1037400004F403F003F9D412368E041FFFAB04FC1B
:10375000045A05C4053B06BD064807DC0775081377
:1037600009B309540AF30A8F0B240CE005DDE05C71
:103770000A000018448CBE1958BCB005200B19195A
:103780003200020101020103051F3903D9057E0140
:0C379000CD05000400A24A040000000067
:040000050800016985
:00000001FF
